:020000040000FA
:10000000680200200D030000150300001703000024
:10001000190300001B0300001D0300000000000086
:100020000000000000000000000000001F030000AE
:10003000210300000000000023030000250300004E
:1000400027030000290300002B0300002D030000FC
:100050002F030000310300003303000035030000CC
:1000600037030000390300003B0300003D0300009C
:100070003F0300004103000043030000450300006C
:1000800047030000490300004B030000DD090000A6
:100090004F0300005103000053030000550300000C
:1000A00057030000590300005B0300005D030000DC
:1000B0005F030000610300006303000065030000AC
:1000C00067030000690300006B0300006D0300007C
:1000D0006F0300007103000073030000750300004C
:1000E0007703000079030000000000007B0300009C
:1000F0007D0300007F0300008103000083030000F4
:100100008503000087030000890300008B030000C3
:1001100000000000000000008D0300008F030000BD
:100120009103000093030000950300009703000073
:10013000990300009B0300009D0300009F03000043
:1001400000000000000000000000000000000000AF
:10015000A1030000A3030000A5030000A703000003
:10016000000000000000000000000000000000008F
:10017000000000000000000000000000000000007F
:10018000000000000000000000000000000000006F
:10019000000000000000000000000000000000005F
:1001A000000000000000000000000000000000004F
:1001B000A9030000AB030000AD030000AF03000083
:1001C000B1030000B3030000B5030000B703000053
:1001D000B9030000BB030000BD030000BF03000023
:1001E000C1030000C3030000C503000000000000BD
:1001F00000000000C7030000C9030000CB0300009B
:10020000CD030000CF03000000000000000000004C
:10021000D1030000D3030000D5030000D703000082
:10022000D9030000DB030000DD030000DF03000052
:10023000E1030000E3030000E5030000E703000022
:10024000E9030000EB030000ED030000EF030000F2
:10025000F1030000F3030000F5030000F7030000C2
:10026000F9030000FB030000FD03000000F002F8AA
:1002700000F03CF80AA090E8000C82448344AAF104
:100280000107DA4501D100F031F8AFF2090EBAE802
:100290000F0013F0010F18BFFB1A43F001031847BA
:1002A0001008000030080000103A24BF78C878C158
:1002B000FAD8520724BF30C830C144BF04680C606C
:1002C000704700000023002400250026103A28BFB4
:1002D00078C1FBD8520728BF30C148BF0B607047B8
:1002E0001FB500F09DFB1FBD10B510BD00F09BF8C1
:1002F0001146FFF7F5FF00F07DFB00F0B9F803B4FD
:10030000FFF7F2FF03BC00F0C1F800003F48804750
:100310003F480047FEE7FEE7FEE7FEE7FEE7FEE7B1
:10032000FEE7FEE7FEE7FEE7FEE7FEE7FEE7FEE7A5
:10033000FEE7FEE7FEE7FEE7FEE7FEE7FEE7FEE795
:10034000FEE7FEE7FEE7FEE7FEE7FEE7FEE7FEE785
:10035000FEE7FEE7FEE7FEE7FEE7FEE7FEE7FEE775
:10036000FEE7FEE7FEE7FEE7FEE7FEE7FEE7FEE765
:10037000FEE7FEE7FEE7FEE7FEE7FEE7FEE7FEE755
:10038000FEE7FEE7FEE7FEE7FEE7FEE7FEE7FEE745
:10039000FEE7FEE7FEE7FEE7FEE7FEE7FEE7FEE735
:1003A000FEE7FEE7FEE7FEE7FEE7FEE7FEE7FEE725
:1003B000FEE7FEE7FEE7FEE7FEE7FEE7FEE7FEE715
:1003C000FEE7FEE7FEE7FEE7FEE7FEE7FEE7FEE705
:1003D000FEE7FEE7FEE7FEE7FEE7FEE7FEE7FEE7F5
:1003E000FEE7FEE7FEE7FEE7FEE7FEE7FEE7FEE7E5
:1003F000FEE7FEE7FEE7FEE7FEE7FEE7FEE70000BA
:1004000004480549034A054B70470000C90900002C
:100410006D020000680000206802002068000020D3
:10042000704770477047754600F02CF8AE460500DF
:100430006946534620F00700854618B020B5FFF7FF
:10044000DFFFBDE820404FF000064FF000074FF0FF
:1004500000084FF0000BAC46ACE8C009ACE8C0099E
:10046000ACE8C009ACE8C00921F007018D4670472F
:1004700010B50446AFF300802046BDE81040FFF7FA
:100480003EBF0000004870470800002001491820C6
:10049000ABBEFEE7260002007047000080B540F2C8
:1004A0000000C2F200000078012812D1FFE740F2FC
:1004B0000001C2F20001002008702A20012100F092
:1004C0001BF8072048F28041C0F21E0100F0E4F85A
:1004D00010E040F20000C2F20000002101702A206A
:1004E00000F00AF8072044F24021C0F20F0100F0AA
:1004F000D3F8FFE780BD000083B08DF80B008DF8C6
:100500000A109DF80B00C00801909DF80B0000F048
:1005100007000090009901208840019A40F63C2194
:10052000C0F2000151F82210C1F8FC0303B070477B
:1005300081B08DF803009DF8031040F68020C0F2D2
:10054000000050F82110886940F00100886101B076
:100550007047000082B000208DF80600FFE79DF88C
:100560000600002800F39680FFE79DF8060000EBE8
:10057000400140F66C20C0F2000010F821104AF64D
:10058000AB22CAF6AA22A1FB0232920802EB420277
:10059000A1EB42018DF807109DF8061001EB410117
:1005A00010F8210005280DDCFFE79DF80710012059
:1005B00000FA01F24EF20461C4F20F010868104320
:1005C00008600CE09DF80710012000FA01F24EF2DD
:1005D0005C61C4F20F01086810430860FFE79DF8F2
:1005E000060000EB400040F66C21C0F200010091D3
:1005F00011F8202040F68020C0F2000050F8223090
:10060000DA6822F00102DA609DF8062002EB42026D
:1006100011F8222050F8223004221A609DF806209A
:1006200002EB420211F8222050F822305A6822F0E0
:1006300003025A609DF8062002EB420201EB82039E
:1006400093F801C011F8222050F822305A6842EA8B
:100650000C025A609DF8062002EB420301EB830274
:100660005268013A11F8233050F823309A639DF80C
:10067000062002EB420211F8221050F82110486ABD
:1006800040F001004862FFE79DF8060001308DF858
:10069000060064E702B0704782B08DF80700009151
:1006A00000999DF8072040F68020C0F2000050F825
:1006B000222091629DF8071050F82120516A41F0E4
:1006C000010151629DF8071050F82110C86840F0F0
:1006D0000100C86002B0704781B000208DF80300AF
:1006E0008DF80300FFE79DF80300002848DCFFE7D2
:1006F0009DF8030000EB400140F67820C0F20000B6
:100700000144497801F007018DF802104EF60C52B1
:10071000CEF200020021CFF6052111609DF80220E3
:100720009DF8031001EB4101415C01F00303DB0084
:10073000053302FA03FC01F0FC024EF26413CEF220
:100740000003D15841EA0C01D1509DF8031001EB90
:100750004101405C4209A0EB4211012000FA01F383
:100760004EF20011CEF2000151F82200184341F878
:100770002200FFE79DF8030001308DF80300B2E787
:1007800001B0704785B000208DF81300FFE79DF899
:100790001300002800F31581FFE79DF8130000EB1C
:1007A000800140F67B20C0F20000415CC908039143
:1007B0009DF8131001EB8101415C01F007010291EA
:1007C0000399012202FA01FC4EF20863C4F20F03FE
:1007D000196841EA0C011960039B40F65421C0F2EC
:1007E000000151F823C044F24B33C4F64F43CCF818
:1007F0002035029B02FA03F3039A51F82220D2F823
:1008000024151943C2F824159DF8131001EB81013A
:1008100008444078E8B9FFE70298012101FA00FC9A
:10082000039A40F65420C0F2000050F82230D3F86A
:100830001C2522EA0C02C3F81C25029A01FA02F2D6
:10084000039950F82110D1F81C051043C1F81C057C
:10085000FFE70299012000FA01F3039840F65421C2
:10086000C0F2000151F82020D2F800049843C2F8E9
:1008700000049DF8130000EB800240F67B20C0F2DC
:10088000000002449278029B02FA03F3039A51F8A3
:100890002220D2F800141943C2F800149DF8131056
:1008A00001EB81010844C07801460191032838D842
:1008B0000199DFE801F0021324350299012000FAC2
:1008C00001F2039940F65420C0F2000050F82110C4
:1008D000D1F810051043C1F8100522E0029901205B
:1008E00000FA01F2039940F65420C0F2000050F8DB
:1008F0002110D1F814051043C1F8140511E0029934
:10090000012000FA01F2039940F65420C0F20000E1
:1009100050F82110D1F80C051043C1F80C0500E087
:10092000FFE79DF8130000EB800140F67B20C0F24A
:100930000000084400790146009140B1FFE70098AB
:10094000012815D0FFE70098022822D032E0029952
:10095000012000FA01F2039940F65420C0F2000091
:1009600050F82110D1F800051043C1F8000521E02E
:100970000299012000FA01F2039940F65420C0F2D6
:10098000000050F82110D1F804051043C1F8040507
:1009900010E00299012000FA01F2039940F6542078
:1009A000C0F2000050F82110D1F808051043C1F83A
:1009B0000805FFE7FFE79DF8130001308DF81300ED
:1009C000E5E605B0704700004EF68851CEF2000112
:1009D000086840F4700008607047000080B582B07D
:1009E00040F66C20C0F2000080688047019802B099
:1009F00080BD000080B582B000200190FFF76CFE42
:100A0000FFF7C0FEFFF7A6FD0720FFF791FDFFF7F8
:100A100045FDFFE7FEE7000080B5FFF73FFD80BD25
:100A2000F1EE100A4FF6FF71C0F2C03120EA01006A
:100A300040F04070E1EE100A704700000080054071
:100A40000090054000A0054000B0054000C00540F2
:100A500000D00540008005400090054000A0054002
:100A600000B0054000C0054000D00540070200006E
:100A700010000000190A00006001002A00010300B4
:100A800000000340001003400020034000300340FA
:100A900000400340005003400060034000700340EA
:100AA00000C0044000D0044000E0044000F00440D6
:100AB000D00A00000000002004000000A80200008E
:100AC000D40A00000800002060020000C4020000F8
:040AD0000100000021
:040000050000030DE7
:00000001FF
