:020000040000FA
:10000000680200200D030000150300001703000024
:10001000190300001B0300001D0300000000000086
:100020000000000000000000000000001F030000AE
:10003000210300000000000023030000250300004E
:1000400027030000290300002B0300002D030000FC
:100050002F030000310300003303000035030000CC
:1000600037030000390300003B0300003D0300009C
:100070003F0300004103000043030000450300006C
:1000800047030000490300004B030000490900003A
:100090004F0300006D0900005303000055030000EA
:1000A00057030000590300005B0300005D030000DC
:1000B0005F030000610300006303000065030000AC
:1000C00067030000690300006B0300006D0300007C
:1000D0006F0300007103000073030000750300004C
:1000E0007703000079030000000000007B0300009C
:1000F0007D0300007F0300008103000083030000F4
:100100008503000087030000890300008B030000C3
:1001100000000000000000008D0300008F030000BD
:100120009103000093030000950300009703000073
:10013000990300009B0300009D0300009F03000043
:1001400000000000000000000000000000000000AF
:10015000A1030000A3030000A5030000A703000003
:10016000000000000000000000000000000000008F
:10017000000000000000000000000000000000007F
:10018000000000000000000000000000000000006F
:10019000000000000000000000000000000000005F
:1001A000000000000000000000000000000000004F
:1001B000A9030000AB03000091090000AF03000099
:1001C000B5090000B3030000B5030000B703000049
:1001D000B9030000BB030000BD030000BF03000023
:1001E000C1030000C3030000C503000000000000BD
:1001F00000000000C7030000C9030000CB0300009B
:10020000CD030000CF03000000000000000000004C
:10021000D1030000D3030000D5030000D703000082
:10022000D9030000DB030000DD030000DF03000052
:10023000E1030000E3030000E5030000E703000022
:10024000E9030000EB030000ED030000EF030000F2
:10025000F1030000F3030000F5030000F7030000C2
:10026000F9030000FB030000FD03000000F002F8AA
:1002700000F03CF80AA090E8000C82448344AAF104
:100280000107DA4501D100F031F8AFF2090EBAE802
:100290000F0013F0010F18BFFB1A43F001031847BA
:1002A000E807000008080000103A24BF78C878C1A9
:1002B000FAD8520724BF30C830C144BF04680C606C
:1002C000704700000023002400250026103A28BFB4
:1002D00078C1FBD8520728BF30C148BF0B607047B8
:1002E0001FB500F092FB1FBD10B510BD00F09BF8CC
:1002F0001146FFF7F5FF00F06FFB00F0B9F803B40B
:10030000FFF7F2FF03BC00F0C1F800003F48804750
:100310003F480047FEE7FEE7FEE7FEE7FEE7FEE7B1
:10032000FEE7FEE7FEE7FEE7FEE7FEE7FEE7FEE7A5
:10033000FEE7FEE7FEE7FEE7FEE7FEE7FEE7FEE795
:10034000FEE7FEE7FEE7FEE7FEE7FEE7FEE7FEE785
:10035000FEE7FEE7FEE7FEE7FEE7FEE7FEE7FEE775
:10036000FEE7FEE7FEE7FEE7FEE7FEE7FEE7FEE765
:10037000FEE7FEE7FEE7FEE7FEE7FEE7FEE7FEE755
:10038000FEE7FEE7FEE7FEE7FEE7FEE7FEE7FEE745
:10039000FEE7FEE7FEE7FEE7FEE7FEE7FEE7FEE735
:1003A000FEE7FEE7FEE7FEE7FEE7FEE7FEE7FEE725
:1003B000FEE7FEE7FEE7FEE7FEE7FEE7FEE7FEE715
:1003C000FEE7FEE7FEE7FEE7FEE7FEE7FEE7FEE705
:1003D000FEE7FEE7FEE7FEE7FEE7FEE7FEE7FEE7F5
:1003E000FEE7FEE7FEE7FEE7FEE7FEE7FEE7FEE7E5
:1003F000FEE7FEE7FEE7FEE7FEE7FEE7FEE70000BA
:1004000004480549034A054B7047000035090000C0
:100410006D020000680000206802002068000020D3
:10042000704770477047754600F02CF8AE460500DF
:100430006946534620F00700854618B020B5FFF7FF
:10044000DFFFBDE820404FF000064FF000074FF0FF
:1004500000084FF0000B21F00701AC46ACE8C009E2
:10046000ACE8C009ACE8C009ACE8C0098D467047EB
:1004700010B50446AFF300802046BDE81040FFF7FA
:100480003EBF0000004870470400002001491820CA
:10049000ABBEFEE7260002007047000010B50E4814
:1004A000007801280BD100200B49087001212A2077
:1004B00000F018F80949012000F0E2F80AE00120F4
:1004C0000549087000212A2000F00CF80449012099
:1004D00000F0D6F810BD00000000002080841E004F
:1004E00040420F0030B5C20800F0070301FA03F4E0
:1004F000024D55F82250C5F8FC4330BD140A0000E7
:10050000054951F82010896941F00101024A52F869
:1005100020209161704700002C0A000010B50020D7
:10052000A3E000EB4002534B13F82220062392FB7A
:10053000F3F403FB1422D1B200EB40024D4B13F84D
:100540002220062A0FDA4C4A126801238B401A43F4
:10055000494B1A6000BF484A136801228A40134081
:10056000002BF8D011E0444A5832126801238B4026
:100570001A43414B58331A6000BF3F4A5832136840
:1005800001228A401340002BF7D000EB4002394B88
:1005900013F82220394B53F82220D26822F00102AE
:1005A00000EB4003334C14F82330344C54F8233020
:1005B000DA60002200EB40032E4C14F823302F4C5D
:1005C00054F823301A6000EB40022A4B13F8222023
:1005D000234653F82220526822F0030200EB400326
:1005E000244C14F82330254C54F823305A6000EB87
:1005F0004002204B13F82220234653F82220526851
:1006000000EB40031B4C04EB83035B781A4300EBC5
:10061000400314F82330194C54F823305A6000EB8F
:100620004002144B03EB82025268521E00EB40035F
:10063000104C14F82330114C54F823309A6300EB1B
:1006400040020C4B13F82220234653F82220526A12
:1006500042F0010200EB4003064C14F82330074C33
:1006600054F823305A62421CD0B20128FFF659AF29
:1006700010BD0000740A000004E60F402C0A0000C0
:100680000C4A52F8202091620A4A52F82020526AFD
:1006900042F00102074B53F820305A62054A52F8E3
:1006A0002020D26842F00102024B53F82030DA6079
:1006B000704700002C0A000030B5002000BF41E068
:1006C00000EB4002214B1A44527802F00701204A05
:1006D000204B1A60204A00EB40031C4CE35C9B0853
:1006E00052F8232000EB4003E35C9B07DB0E5B1D0D
:1006F00001FA03F31A43184B00EB4004134D2C5D31
:10070000A40843F8242000EB40022B469A5C5209CF
:10071000920002F1E022D2F8002100EB40032C46C7
:10072000E35C03F01F040123A3401A4300EB4003E2
:100730002C46E35C5B099B0003F1E023C3F8002136
:10074000421CD0B20128BBDB30BD0000800A000093
:10075000000005FA0CED00E064E100E030B5002295
:10076000DCE002EB82036F4CE35CD80802EB82030F
:10077000E35C03F007016C4B1B68012484402343B6
:10078000694C236000BF684B1B68012484402340F0
:10079000002BF8D0654B664C54F82040C4F8203547
:1007A000634B53F82030D3F8244501238B401C437E
:1007B0005F4B53F82030C3F8244502EB8203594CB9
:1007C00023445B78D3B95A4B53F82030D3F81C45F7
:1007D00001238B409C43564B53F82030C3F81C45F3
:1007E000534B53F82030D3F81C4501238B401C4356
:1007F0004F4B53F82030C3F81C4500BF00BF4C4B93
:1008000053F82030D3F8004401238B409C43484BDD
:1008100053F82030C3F80044454B53F82030D3F848
:10082000003402EB82043F4D2C44A4788C402343D7
:100830003F4C54F82040C4F8003402EB82032C46AD
:100840002344DB7833B1012B12D0022B1ED0032BB3
:100850002BD129E0364B53F82030D3F81045012333
:100860008B401C43324B53F82030C3F810451CE03A
:100870002F4B53F82030D3F8143501248C402343F8
:100880002B4C54F82040C4F814350EE0284B53F894
:100890002030D3F80C3501248C402343244C54F8E9
:1008A0002040C4F80C3500E000BF00BF02EB82031B
:1008B0001C4C23441B7923B1012B10D0022B2AD1CD
:1008C0001BE01B4B53F82030D3F8004501238B402D
:1008D0001C43174B53F82030C3F800451BE0144B62
:1008E00053F82030D3F8043501248C402343104CB6
:1008F00054F82040C4F804350DE00D4B53F8203077
:10090000D3F8083501248C402343094C54F8204087
:10091000C4F8083500BF00BF531CDAB2012AFFF645
:1009200020AF30BD830A000008E60F404B434F4C18
:100930005C0A00000348006840F470000149086048
:100940007047000088ED00E010B506480068406A76
:1009500040F00100034909684862034988688047FC
:1009600010BD00002C0A0000740A000010B50648F3
:100970004068406A40F00100034949684862034901
:100980008868804710BD00002C0A0000740A00002F
:1009900010B506488069406A40F001000349896942
:1009A000486203498868804710BD00002C0A000097
:1009B000740A000010B50648C069406A40F00100A2
:1009C0000349C969486203498868804710BD00002F
:1009D0002C0A0000740A0000FFF76EFEFFF7BEFE4F
:1009E000FFF79CFD0120FFF78BFD01212A20FFF777
:1009F00079FD00212A20FFF775FDFFF74FFD00BFAD
:100A0000FEE710B5FFF74AFD10BD4FF04070E1EE74
:100A1000100A7047008005400090054000A0054086
:100A200000B0054000C0054000D005400000034074
:100A3000001003400020034000300340004003400A
:100A400000500340006003400070034000C00440B9
:100A500000D0044000E0044000F004400080054065
:100A60000090054000A0054000B0054000C00540D2
:100A700000D005400102000010000000030A000041
:100A80001501002A00010300A80A00000000002050
:100A900004000000A8020000AC0A000004000020CE
:0C0AA00064020000C4020000010000001D
:040000050000030DE7
:00000001FF
